:020000040800F2
:1000000008A40020310300087F7400081953000879
:100010007D7400082319000837AD000800000000B7
:100020000000000000000000000000007102000855
:100030009125000800000000CD020008E1890008B9
:100040004B0300084B0300084B0300084B03000858
:100050004B0300084B030008932500084B030008DE
:100060004B030008992500089F2500084B03000852
:100070004B0300084B0300084B0300084B03000828
:100080004B0300084B0300084B0300083D19000810
:1000900025190008311900084B030008A5250008A0
:1000A0004B0300084B0300084B0300084B030008F8
:1000B0004B0300084B0300084B0300084B030008E8
:1000C0004B0300084B0300084B0300084B030008D8
:1000D0004B0300084B0300084B030008D1900008B5
:1000E0004B0300084B0300084B0300084B030008B8
:1000F0004B0300084B0300084B0300084B030008A8
:100100004B0300084B0300084B0300084B03000897
:100110004B0300084B0300084B0300084B03000887
:100120004B0300084B0300084B0300084B03000877
:100130004B0300084B0300084B030008611900083B
:1001400049190008551900084B030008B976000842
:100150004B0300084B0300084B0300084B03000847
:100160004B0300084B0300084B0300084B03000837
:100170004B0300084B0300084B030008000000007D
:100180004B0300084B03000800F002F800F060F891
:100190000AA090E8000C82448344AAF10107DA45E2
:1001A00001D100F055F8AFF2090EBAE80F0013F0D4
:1001B000010F18BFFB1A43F001031847C0F80000F5
:1001C000E0F800000A444FF0000C10F8013B13F077
:1001D000070408BF10F8014B1D1108BF10F8015BA0
:1001E000641E05D010F8016B641E01F8016BF9D193
:1001F00013F0080F1EBF10F8014BAD1C0C1B09D1EA
:100200006D1E58BF01F801CBFAD505E014F8016B5B
:1002100001F8016B6D1EF9D59142D6D370470000ED
:100220000023002400250026103A28BF78C1FBD8FF
:10023000520728BF30C148BF0B6070471FB50EF092
:1002400048FE9DE8030000F045FF1FBD10B510BD3E
:1002500000F0D2FF1146FFF7F1FF0CF0D9FB00F0E0
:10026000F0FF03B4FFF7F2FF03BC01F01DF800003C
:100270002C4B19680868B0E8F04F80F30988BFF389
:100280006F8F4FF0000080F311887047000000006E
:1002900008480068006880F308884FF0000080F389
:1002A000148862B661B6BFF34F8FBFF36F8F00DF64
:1002B00000BF00BF08ED00E0DFF80C00016841F46A
:1002C00070010160704700BF88ED00E0EFF3098026
:1002D000BFF36F8F134B1A681EF0100F08BF20ED8D
:1002E000108A20E9F04F106009B44FF0500080F3FD
:1002F0001188BFF34F8FBFF36F8F0DF045FB4FF0A9
:10030000000080F3118809BC19680868B0E8F04F54
:100310001EF0100F08BFB0EC108A80F30988BFF3FD
:100320006F8F70479C000020EFF30580704700003E
:100330000948804709480047FEE7FEE7FEE7FEE779
:10034000FEE7FEE7FEE7FEE7FEE7FEE704480549B5
:10035000054A064B704700008D8A00088901000895
:100360000898002008A4002008A0002008A0002071
:10037000DFED300AB5EEC00A60EE200ABDEEE01AED
:1003800011EE100AF1EE10FA38BF401E00EE100A0E
:100390009FED291AB8EEC00A70EEC00A20EE810A5D
:1003A000BCEEC00A10EE100A00EE100A0028B8EEEB
:1003B000C00A10EE810AB8BF002004DBB0F5807FD0
:1003C000C8BF4FF480701D4960EE000AB6EE001AF7
:1003D000DFED1C2A9FED1A2A60EE011A60EE225A08
:1003E00020EE813A20EE022A21EEA01A01EB8000D5
:1003F00073EE655A62EE202AB7EE006A33EE003AD9
:10040000D0EC043A76EE611A71EE600A35EEE20A3B
:1004100033EE413A32EEC21A70EEA10A20EE230A00
:1004200064EE831A04EE200A45EE011A31EE800ACA
:100430007047000083F9223E0000804370F00008FE
:10044000ABAA2A3EABAAAA3EDFED300AB5EEC00A3F
:1004500060EE200ABDEEE01A11EE100AF1EE10FA7D
:1004600038BF401E00EE100A9FED291AB8EEC00AF0
:1004700070EEC00A20EE810ABCEEC00A10EE100A2F
:1004800000EE100A0028B8EEC00A10EE810AB8BFCC
:10049000002004DBB0F5807FC8BF4FF480701D4999
:1004A00060EE000AB6EE001ADFED1C2A9FED1A2A54
:1004B00060EE011A60EE225A20EE813A20EE022A06
:1004C00021EEA01A01EB800073EE655A62EE202A3D
:1004D000B7EE006A33EE003AD0EC043A76EE611AD9
:1004E00071EE600A35EEE20A33EE413A32EEC21A9C
:1004F00070EEA10A20EE230A64EE831A04EE200AAD
:1005000045EE011A31EE800A7047000083F9223E61
:100510000000804380F40008ABAA2A3EABAAAA3EA2
:1005200070B405880E884468D1F804C05368B54299
:1005300008D140884988884201BF11888D4251887E
:10054000884203D070BC6FF00200704705FB00F1D9
:10055000880825D094ED001ADCED000A94ED010A1C
:10056000D4ED021A71EE200A9CED011A30EE011A48
:100570009CED020AC3ED000A83ED011AD4ED030AD3
:100580009CED031A31EE800A103470EE810A83ED7F
:10059000020A0CF1100CC3ED030A1033401ED9D12E
:1005A00001F00300B0F1004F0BD300BFB4EC010A1F
:1005B000401EFCEC010A30EE200AA3EC010AF5D142
:1005C0002BE0002829DD211F1B1FACF1040210F0D5
:1005D000010F0AD0091D121D91ED000AD2ED000A8B
:1005E0001B1D30EE200A83ED000A400815D000BF25
:1005F00091ED010AD2ED010A0831083230EE200AED
:1006000083ED010A91ED000AD2ED000A0833401E85
:1006100030EE200A83ED000AEAD170BC002070475A
:1006200001804280436070472DE9F04F87B04268F7
:1006300000924A680192B0F800E045889FEDFE0AFA
:1006400000200390AE4506D108884988884204BF3F
:100650007146864504D007B06FF00200BDE8F08F08
:1006600010465FEA010C1CBF9FEDF41AF0EE400A41
:1006700042D000BFAEEB0C01B1F1004F05D300BF7B
:10068000E0EC010A491EFBD113E0002911DD021F35
:1006900011F0010F1CBF121DC2ED000A4B1006D055
:1006A000C2ED010A08325B1EC2ED000AF8D100EB70
:1006B0008100ACF10101A0EC011AB1F1004F04D3AB
:1006C000E0EC010A491EFBD113E0002911DD021FF5
:1006D00011F0010F1CBF121DC2ED000A4B1006D015
:1006E000C2ED010A08325B1EC2ED000AF8D100EB30
:1006F0008100BCF1010CBDD14FF0000A0295002D24
:1007000008BF002000F006824FEA5E0006900EFB54
:1007100005F00590401BF0EE401A049000990AFB8A
:1007200005F001EB8004019A94ED000A02EB8000D1
:10073000012621460346F0EE610ABEF1000F5BD0B0
:10074000A4EB85021EF0010F18D002EB850292ED9A
:10075000001AB5EEC01AF1EE10FA08DDB4EEE01A98
:10076000F1EE10FA0ADD00BFF0EE410A06E0B1EE4C
:10077000411AF4EEC10AF1EE10FAF5D3DDF818C013
:10078000BCF1000F33D000BF02EB850797ED001AD4
:10079000B5EEC01AF1EE10FA05DDB4EEE01AF1EE96
:1007A00010FA09DD06E0B1EE411AF4EEC10AF1EEED
:1007B00010FA01D2F0EE410A02EBC50292ED001AE6
:1007C000B5EEC01AF1EE10FA05DDB4EEE01AF1EE66
:1007D00010FA09DD06E0B1EE411AF4EEC10AF1EEBD
:1007E00010FA01D2F0EE410ABCF1010CCCD1049A0E
:1007F00001EB850C0CEB8204F5EEC00AF1EE10FA69
:1008000000F08081B5EEC00A059AF1EE10FAA4EB73
:10081000820CD4BFB1EE401AB0EE401AB4EE601AAA
:10082000F1EE10FA5CD0AEEB0A02571E58D005FB71
:100830000AF20CEB820292ED002A00BFB0EE421ADF
:1008400005FB06F4B5EEC01A00EB8404F1EE10FAD5
:10085000D8BFB1EE411AB4EE601AF1EE10FA3CD1F5
:10086000A5EB0A06B6F1004F0BD300BF92ED000ACC
:10087000DCED000A761EE2EC010AACEC010AF5D1CF
:100880000CE0002E0ADD00BF92ED000ADCED000A4C
:10089000761EE2EC010AACEC010AF5D12A46B5F16C
:1008A000004F0AD394ED000AD0ED000A521EE4EC8A
:1008B000010AA0EC010AF5D10CE0002A0ADD00BF14
:1008C00094ED000AD0ED000A521EE4EC010AA0ECFF
:1008D000010AF5D1012003900AE0761C7F1EADD1FC
:1008E0000398012804D0B5EEC00AF1EE10FA7CD0CE
:1008F000A5EB0A0091ED000A8B4699460746B0F138
:10090000004F08D3D1ED000A401E80EE801AA1EC02
:10091000011AF7D11FE000281DDDABF1040110F032
:10092000010F06D0F0EE400A80EEA01A81ED011A08
:10093000091D78100FD000BFD1ED010A80EE801A9A
:1009400081ED011AD1ED020A80EE801A81ED021AC2
:100950000831401EF0D12846B5F1004F09D300BF41
:10096000D3ED000A401E80EE801AA3EC011AF7D1E5
:100970001FE000281DDDA9F1040110F0010F06D0D1
:10098000D1ED010A80EE801A81ED011A091D68106F
:100990000FD000BF91ED011AC1EE000AC1ED010AAE
:1009A000D1ED020A80EE801A81ED021A0831401E54
:1009B000F0D1DDE900124FF000085FEA0E067CD0AE
:1009C000D04504BF01EB870102EB850258D091EDC1
:1009D000000ADC4648463B46B7F1004F0DD300BF46
:1009E000D1ED000ABCEC011A00E08BE040EE410AB8
:1009F0005B1EE1EC010AF3D133E0002F31DD0B1F68
:100A0000ABF1040C17F0010F0CD00CF1040CF0EE5C
:100A1000400A9CED002AB0EE601A00EEC21A83ED87
:100A2000011A1B1D7C101AD0D3ED010A9CED011A8E
:100A300040EE410A04E00000000000000000803F9A
:100A4000C3ED010A0CF1080C93ED021ADCED000A6B
:100A500000EE601A83ED021A0833641EE4D101EB44
:100A600087012B46B5F1004F0BD300BFF0EC010A14
:100A700092ED001A5B1E00EE601AA2EC011AF5D18D
:100A80002FE0002B2DDDA2F1040CA9F1040013F0DE
:100A9000010F0AD0001DDCED010A90ED001A40EEB6
:100AA000410ACCED010A0CF1040C5C1017D000BF18
:100AB0009CED011AD0ED010A00E019E000EE601A89
:100AC0000830641E8CED011ADCED020A90ED001A6C
:100AD00040EE410ACCED020A0CF1080CE8D102EB21
:100AE000850201EB8A01761E08F101087FF468AFE8
:100AF00000980AF1010A001D00900298401E029021
:100B00007FF40CAE03990020012904BF07B0BDE8B3
:100B1000F08F00BFB5EEC00AF1EE10FA08BF6FF01B
:100B2000040007B0BDE8F08F2DE9F04F4468B0F83D
:100B3000009045880888B1F802C0D2F804A04FF0B0
:100B4000000B854204BF1388994507D1528894450C
:100B500004BF9FED322A4FEA950E03D06FF00200DA
:100B6000BDE8F08FD1F804000AEB8B086646002739
:100B7000B0EE420A23465FEA0E0224D090ED001A3E
:100B8000D3ED001A00EB8C00D3ED010A01EE810ACF
:100B900090ED001A00EB8C00D3ED021A00EE810AF2
:100BA00090ED001A00EB8C00D3ED030A1033521EB7
:100BB00001EE810A90ED001A120400EB8C00120C79
:100BC00000EE810ADAD115F003020BD0F3EC010A32
:100BD00090ED001A521E120400EB8C0000EE810A08
:100BE000120CF3D1781CA8EC010A87B24868721E77
:100BF000160400EB8700360CBAD10BEB0C001FFA81
:100C000080FBA9F101001FFA80F904EB8504B9F11A
:100C1000000FA7D10020BDE8F08F00000000000009
:100C200070B405880E884468D1F804C05368B54292
:100C300008D140884988884201BF11888D42518877
:100C4000884203D070BC6FF00200704705FB00F1D2
:100C5000880825D094ED001ADCED000A94ED010A15
:100C6000D4ED021A71EE600A9CED011A30EE411AC1
:100C70009CED020AC3ED000A83ED011AD4ED030ACC
:100C80009CED031A31EEC00A103470EEC10A83EDF8
:100C9000020A0CF1100CC3ED030A1033401ED9D127
:100CA00001F00300B0F1004F0BD300BFB4EC010A18
:100CB000401EFCEC010A30EE600AA3EC010AF5D1FB
:100CC0002BE0002829DD211F1B1FACF1040210F0CE
:100CD000010F0AD0091D121D91ED000AD2ED000A84
:100CE0001B1D30EE600A83ED000A400815D000BFDE
:100CF00091ED010AD2ED010A0831083230EE600AA6
:100D000083ED010A91ED000AD2ED000A0833401E7E
:100D100030EE600A83ED000AEAD170BC0020704713
:100D2000F0B4038842684488488800264D689C4691
:100D3000834205BF09888C426FF00200A7081CBFE0
:100D4000F0BC7047380005EB86011BD0B2EC010AFD
:100D5000401E0004000C81ED000A01EB8301B2EC9F
:100D6000010A81ED000A01EB8301B2EC010A81ED79
:100D7000000A01EB8301B2EC010A81ED000A01EBEC
:100D80008301E3D114F003000AD000BFB2EC010AE2
:100D9000401E0004000C81ED000A01EB8301F5D137
:100DA000701C86B2ACF101001FFA80FCBCF1000F90
:100DB000C8D1F0BC0020704770B5064600F06EF94F
:100DC000056806F10B0020F00704B4429CBF002028
:100DD00070BD2B466A68BAB11068A04210D304F106
:100DE000080188423CBF5068586007D35168101909
:100DF00041601168091B016058601460101D70BDCE
:100E000013465268002AE7D12146284600F04EF9E1
:100E10000028DED170BD53EA020C00F069802DE994
:100E2000F04B4FF00006002B1FBFB3FA83F503FA17
:100E300005F424FA05F65E4012BF1643B2FA82F5B5
:100E400002FA05F4C5F120051EBF22FA05FC44EAAA
:100E50000C04203556EA044C4FEA144418BF641CB5
:100E60004FF000084FF00009904271EB030C39D3AA
:100E7000002919BFB1FA81F701FA07F6B0FA80F735
:100E800000FA07F6C7F120071EBF20FA07FC46EA62
:100E90000C062037B6FBF4FCA7EB0507103F07F064
:100EA0001F0BCBF120060CFA0BFB2CFA06F644BF05
:100EB000B3460026202FA4BF5E464FF0000B5BEA2E
:100EC000060C08BF4FF0010B19EB0B09ABFB027CC2
:100ED00048EB0608C01B06FB02CC0BFB03CC71EBF6
:100EE0000C01C1E70B46024641464846BDE8F08B7F
:100EF00013B54FF000004FF00001AFF30080BDE8E4
:100F00001C407047032A40F2308010F0030C00F0C0
:100F1000158011F8013BBCF1020F624498BF11F833
:100F200001CB00F8013B38BF11F8013BA2F10402EC
:100F300098BF00F801CB38BF00F8013B11F0030364
:100F400000F02580083AC0F0088051F8043B083AC8
:100F500051F804CBA0E80810F5E7121D5CBF51F86A
:100F6000043B40F8043BAFF30080D20724BF11F8E4
:100F7000013B11F801CB48BF11F8012B24BF00F849
:100F8000013B00F801CB48BF00F8012B704710B5BA
:100F9000203AC0F00B80B1E81850203AA0E8185071
:100FA000B1E81850A0E81850BFF4F5AF5FEA027C32
:100FB00024BFB1E81850A0E8185044BF18C918C0A1
:100FC000BDE810405FEA827C24BF51F8043B40F842
:100FD000043B08BF7047D20728BF31F8023B48BF27
:100FE00011F8012B28BF20F8023B48BF00F8012B65
:100FF000704702F0FF0343EA032242EA024200F094
:1010000002B84FF000020429C0F0128010F0030C67
:1010100000F01B80CCF1040CBCF1020F18BF00F8EB
:10102000012BA8BF20F8022BA1EB0C0100F00DB89A
:101030005FEAC17C24BF00F8012B00F8012B48BFF8
:1010400000F8012B70474FF0000200B5134694469C
:101050009646203922BFA0E80C50A0E80C50B1F110
:101060002001BFF4F7AF090728BFA0E80C5048BF24
:101070000CC05DF804EB890028BF40F8042B08BFC2
:10108000704748BF20F8022B11F0804F18BF00F8BE
:10109000012B704770477047704700000048704749
:1010A000B0970020704770477047704738B50446C6
:1010B0000A4600206946AFF30080002808BF38BD0B
:1010C00002460099204600F075F8012038BD012045
:1010D00000F08AB8F8B5AFF30080054600200C4652
:1010E000102000BF0646A819A0420DD93246694615
:1010F0000020AFF30080070008BF00F075F80098EB
:10110000A04218BF0546C419FFF7C8FF056007468F
:10111000F01D20F007004619284600F00AF8B442F6
:1011200008BFF8BDA21B31463868BDE8F84000F0A2
:1011300041B800210160C0E90110704710207047DC
:1011400070B50446051FFFF7A9FF0068002C14BF07
:10115000446870BD002C18BFAC423CBF2046646898
:10116000F8D301680A18AA4218BF456003D12A685B
:1011700005461144016028684119A1421CBF6C60FA
:1011800070BD6168696021680844286070BD10B551
:1011900000F00CF8006810BD10B5044600F006F829
:1011A000046010BD00487047A897002000487047B1
:1011B000A8970020034640688C46002818BF884244
:1011C0003CBF03464068F8D318681844884207D0EB
:1011D0000CF1030020F00700001D411A521A0146CD
:1011E000081D0A60FFF7ACBF10B500F035F8BDE888
:1011F000104000F02CB870477546FFF7D3FFAE469D
:1012000005006946534620F00700854618B020B512
:10121000FFF79CF8BDE820404FF000064FF00007B4
:101220004FF000084FF0000B21F00701AC46ACE88E
:10123000C009ACE8C009ACE8C009ACE8C0098D46FB
:1012400070470446AFF300802046FFF70AF80028F5
:1012500001D000F029B8704710B5012805D0002151
:1012600003A000F027F8012010BD09A1F8E7000055
:1012700053494752544D454D3A204F7574206F667F
:101280002068656170206D656D6F727900000000E7
:101290003A2048656170206D656D6F727920636FCB
:1012A000727275707465640001491820ABBEFEE768
:1012B0002600020070B505460C460A2000E06D1CB1
:1012C00000F011F835B128780028F8D102E0641C4C
:1012D00000F009F814B120780028F8D1BDE870407A
:1012E0000A20AFF3008008B569468DF8000003209E
:1012F000ABBE08BDF0B41F48002101254389028917
:1013000002241D48012B04D0022B1ED0032B1CD11C
:1013100013E0012A04D0022A0BD0032A15D104E0DD
:10132000017041708470C4701FE005220270457026
:1013300001E001704470847016E00423012A08D093
:101340000626022A0DD0032A06D001704170817052
:101350000AE00170417001E0067045708370C3704F
:1013600003E0067044708670C170F0BC034801F061
:1013700093B90000B88F00208E0200207C940020DA
:1013800005480021017041708170C170FFF7B2FF04
:1013900003200CF0FFF9F9E78E0200200122102152
:1013A000014802F08BB90000000002400022102129
:1013B000014802F083B900000000024001221146FA
:1013C000014802F07BB90000000402400022012124
:1013D000014802F073B900000004024070B50446F1
:1013E000FFF7E4FF922000F02DF906226549122054
:1013F00000F00AF9FFF7D2FF624DA5F120066878E8
:101400002978000200B2084300EE100AD6ED030A64
:10141000B8EEC00A60EE200A94ED080A60EE800A79
:10142000C4ED000AE878A978000200B2084300EE93
:10143000900AB8EEE01AD6ED030A21EE201A21EE4A
:10144000001A84ED011A68792979000200B2084374
:1014500001EE100A3081B8EEC11A61EE200A20EECA
:10146000800A84ED020AFFF7B1FF08222946002016
:1014700000F0CAF8FFF7A2FF28780F285AD1F078B9
:10148000A9780028E8784FEA002000B240EA01007D
:101490002BD000EE100AD4ED090AB8EEC01A96ED72
:1014A000040A51EE000AC4ED030A687929790002A2
:1014B00000B2084300EE900A94ED0A1AF8EEE00A32
:1014C00010EE801A84ED041AE879A979000200B2BE
:1014D000084300EE900A308194ED0B1AF8EEE00A12
:1014E00010EE801A84ED051A24E000EE100AF8EEE2
:1014F000C00A96ED040A60EE800AC4ED030A68791A
:101500002979000200B2084300EE900AF8EEE00AE2
:1015100060EE800AC4ED040AE879A979000200B2FD
:10152000084300EE900A3081F8EEE00A20EE800ACF
:1015300084ED050AFFF73AFFA22000F083F80222AB
:101540001049222000F060F8FFF728FF287869781A
:10155000C00040EA51103081B0F5806F02DBA0F589
:1015600000603081B6F90800B4EE001A00EE100AEF
:10157000F8EEC00AB3EE070A00EE810A84ED070A0E
:1015800070BD00005C03002070B5174C0D46E06193
:101590000020A0700AF098FEA1780843A0700AF01D
:1015A00027FFA1780843A0701DB1104800F024FA6D
:1015B00018E00E489FED0E0A80ED090A9FED0D0A16
:1015C00080ED0A0A9FED0C0A80ED0B0A9FED0B0AD5
:1015D00080ED0C0A9FED0A0A80ED080A9FED090ACA
:1015E00080ED060AA07870BD3C030020F094002036
:1015F000D257053AFDA38E3B5BAD253B3FD41B4143
:10160000D0ED803F0000204270B514460D4640F0FA
:10161000800000F017F806E0552000F013F8641E73
:1016200005F8010BE4B2002CF6D170BD10B50C46E4
:1016300040F0800000F006F8552000F003F820701C
:1016400010BD000001B582B04FF47A700090012304
:1016500001AA02A9024803F045FA9DF804000EBD54
:10166000700C002010B50C46FFF7ECFF2046BDE8DB
:101670001040FFF7E7BF000010B502F033F907F0A4
:10168000BBF906F085FF05F01DFC05F0A3FB05F096
:101690007DFD05F04FFE05F059FD05F09BFD05F0C1
:1016A00055FB05F075FB05F0A1FE05F0C5FD0AF040
:1016B000AFFF0AF02BFF0BF021FEA82000F0F8FE90
:1016C00001210948FFF760FF0028F9D105F0ACFEC1
:1016D00005F0E4FD054803F07DFBBDE8104008215E
:1016E000024803F0EDBC0000700C0020C80D002083
:1016F00030B51C4B93ED070AB5EEC00AF1EE10FAB7
:1017000001DCB1EE400A10EE100A174C0022174916
:10171000A04203DDC888401CC88000E0CA804A702F
:101720008A70B1F906004FF4FA75A84219DB01245A
:10173000A8420FD191ED040ADFED0D0AB8EEC00A00
:1017400030EE200ABDEEC00A81ED040A0889401C73
:10175000088105E040F2DC55A84201DB1A808C705C
:101760004C7030BD989200200000904694020020FA
:10177000000034471A4908B54FF400720A6000228D
:101780008A60CA6008220A611649884202DD49421D
:10179000884200DB08461449144A098DA1F50071FE
:1017A000013906D0012908D002290AD003290FD116
:1017B0000BE0010A117050700AE0010A9170D070BC
:1017C00006E0010A1171507102E0010A9171D071B5
:1017D0006B46064A0249064801F06CF908BD000054
:1017E000A0860020C0E0FFFFF00400204801002098
:1017F000CC0B002010B50E4CE07805280DD2DFE8A8
:1018000000F009030306060007F012F805E006F0F1
:101810003FFF02E0002007F05FF80648E178017022
:10182000C068002803D1BDE8104007F055B810BDCE
:101830008E02002094020020B6EE002A92ED020AE9
:10184000B0EE421AD2ED030A00EE401AD0ED001AB3
:10185000D0ED013A00EEE01A21EE213A92ED011AA4
:10186000D2ED001A61EE002A41EEE02A61EE200A74
:1018700041EE800A02EEA33A90ED020AF0EE002A51
:1018800000EE803A23EE220A81ED000AD2ED010A31
:10189000D2ED021A92ED001A92ED030A20EEA13A5F
:1018A000D0ED003A90ED014A01EE003A23EE233AE2
:1018B000F0EE423A40EEE03A40EE403A21EE800A45
:1018C00001EE600A03EE843AD0ED020A00EE203AFF
:1018D00023EE220A81ED010AD2ED010AD2ED031AAC
:1018E00092ED020A92ED001A20EEA13A60EE211A62
:1018F000D0ED003A00EEE02A01EE403A41EE201A27
:1019000090ED011A00EE402A23EE233A90ED020AF0
:1019100001EE813A02EE003A23EE220A81ED020A3C
:101920007047FEE7014801F024BA0000CC0B00200C
:10193000014801F01EBA0000CC0B0020014801F064
:1019400018BA0000CC0B0020014801F012BA0000C8
:10195000F40B0020014801F00CBA0000F40B002049
:10196000014801F006BA0000F40B00200020704787
:101970000020704710B500220449054807F0DAFD41
:101980000449034807F0C9FD002010BD041A0020D7
:10199000280F00200412002010B50A6804460146F2
:1019A0000748FFF7AFFA064805F03EFF2146054815
:1019B00007F0B3FD034807F089FD002010BD0000CB
:1019C00004240020280F0020002070470A460949FF
:1019D00010B5D1F8BC12D1F8141209B1012010BD14
:1019E0000146044807F0A6FDBDE81040014807F095
:1019F0001BBE0000280F00202DE9F04F04462DEDFE
:101A0000048B89B000200090019000F02FFDEC4E77
:101A100002AF0DF1140886ED050A4FF07C5BDFF88C
:101A2000A493DFF8A4A300F021FDD6ED050AE74951
:101A300030EE600A10EE100A884214DD9FEDE40AD1
:101A400084ED090A9FEDE30A84ED0A0A9FEDE20A9C
:101A500084ED0B0A9FEDE10A84ED0C0A9FEDE00A8C
:101A600084ED060A87E19FEDDF0A00F0C3FC9FEDDD
:101A7000DE0A002584ED0C0A84ED090A84ED0A0AC9
:101A800084ED0B0AF8E0FFF791FC9220FFF7DAFDF6
:101A9000062269461220FFF7B7FDFFF77FFC9DF88D
:101AA00001009DF80010000200B2084300EE100A89
:101AB000D6ED030AB8EEC00A20EE200A84ED000A33
:101AC0009DF803009DF80210000200B2084300EEEA
:101AD000900A20EE000AB8EEE01AD6ED030A21EED5
:101AE000201A84ED011A9DF805009DF804100002EB
:101AF00000B2084301EE900A01EE010AF8EEE11A85
:101B000061EEA00AC4ED020A00EEA00A09F074FF1B
:101B1000B0EE408A94ED0C0A30EE080A84ED0C0A0F
:101B2000FFF754FC082269460020FFF76DFDFFF720
:101B300045FC9DF800000F2840D19DF803009DF85A
:101B40000210000200B2084300EE100AF8EEC00ACC
:101B500096ED040A60EE800AC4ED030A94ED091ABA
:101B600071EE200AC4ED090A9DF805009DF80410E5
:101B7000000200B2084300EE900AF8EEE00A60EEC0
:101B8000800AC4ED040A94ED0A1A71EE200AC4ED2D
:101B90000A0A9DF807009DF80610000200B20843EB
:101BA00000EE900AF8EEE00A20EE800A84ED050AC5
:101BB000D4ED0B0A30EE800A84ED0B0A002D7CD0A8
:101BC000B4EEC98AF1EE10FA01DDB0EE489AB4EE37
:101BD000E88AF1EE10FA01D2F0EE488A002042467F
:101BE00004EB800191ED030A07EB8001D1ED000ABF
:101BF000B4EEE00AF1EE10FA01DD81ED000A02EB2D
:101C00008001D1ED000AB4EEE00AF1EE10FA01D243
:101C100081ED000A401CC0B20328E1D339EE680A06
:101C20000020424686ED060A494607EB8003D3EDC5
:101C3000000A02EB800393ED001A01EB8003401CC5
:101C400070EEC10AC0B20328C3ED000AEDD310EE56
:101C5000100A584514DC08685246904210DC486867
:101C600090420DDCD9F80800504509DC9FED5F0A71
:101C700000F0C0FB6D1CADB2F0888542FFF403AFED
:101C8000F288D4ED0C0A00EE102A0020B8EE400ACB
:101C900080EE801A84ED0C1A00EE102A04EB80010D
:101CA000401CB8EE400AD1ED090AC0B2032880EE0C
:101CB000801A81ED091AEFD300E069E0FFF776FBA7
:101CC000A220FFF7BFFC022269462220FFF79CFCFE
:101CD000FFF764FB9DF800009DF80110C00040EA8A
:101CE0005110B0F5806F01DBA0F5006000EE100A26
:101CF000B4EE001AF8EEC00AB3EE070A00EE810A4D
:101D000084ED060AB088401CB080B06958453FF7A2
:101D10008AAE94ED0C0ADFED360A30EE600AB0EEC2
:101D2000C00A10EE100A5845F1DCD9F800205146DF
:101D300048468A42EBDC42688A42E8DCD9F808006F
:101D40005045E4DC94ED090A2A48B0EEC00A10EED2
:101D5000101A8142DBDC94ED0A0AB0EEC00A10EEE4
:101D6000101A8142D3DC94ED0B0AB0EEC00A10EEDB
:101D7000101A8142CBDC94ED0C0ADFED1F0A80EED5
:101D8000801A84ED081A09B0BDEC048BBDE8F08F11
:101D9000B0EE489AF0EE488A0020414604EB8002FB
:101DA00092ED030A07EB800282ED000A01EB80024C
:101DB000401CC0B282ED000A0328EFD32EE70000DA
:101DC0003C030020E49400209A99193E0000204131
:101DD000D257053AFDA38E3B5BAD253B3FD41B415B
:101DE000000020420AD7A33B000000006F12033A14
:101DF000CDCC1C410AD7233CC3F51C4138B5184B48
:101E000040F201149FED181A1C6000249C60DC60F5
:101E100008241C61134B174CD3ED000A80EE810A95
:101E2000DFED120A20EE200ADFED110A20EE200A73
:101E3000BDEEC00A10EE103AE3800F4B008823F885
:101E4000400F0888588010889880E088D8800A4A17
:101E50006B4640320249094800F02CFE38BD0000B4
:101E6000B88600200C030020DA0F494000003443FC
:101E70000000C8427C94002010010020F40B0020D8
:101E800000EE100A144910B5B8EEC00AD1ED000AF0
:101E900030EEC00ABDEEC00A10EE100A00F5004098
:101EA000C11700EB11416FF30F01401AA0F500407C
:101EB0000CF07FFD9FED091B53EC112B0CF0A4FDE2
:101EC0009FED081B53EC112B0CF09EFD0CF010FB4A
:101ED00000EE100A10BD00002801002000000000E4
:101EE0000000F03E00000000008076402DE9F04741
:101EF000544FDFF854A1DFF8548100262DED028BFA
:101F000007F12C043878119D012811D09FED500A5B
:101F100087ED090AA68026806680B8F8021000299D
:101F200075D0B8F80000002871D09AF80100387018
:101F3000DFF82091B9F91600FFF7A2FF9FED468A5E
:101F4000C0EE080ADFED458A20EEA80A87ED060AF2
:101F5000B9F91600FFF794FFC0EE080A022D20EE33
:101F6000A80A87ED070A07D197ED060ADFED3C0ABC
:101F700030EE200A87ED060A9FED3A0A87ED060A41
:101F80009FED390B09F070FC51EC100B0CF0B0FA1E
:101F9000B860B8690CF02CFF41EC100B09F0C8FCDC
:101FA00051EC100B0CF0A4FA00EE100A87ED010AB8
:101FB0009AF8000006282ED0B8F802004FF4967266
:101FC000A0F580615342914201DC994204DA80001D
:101FD000A0F58050208000E02680B8F80000A0F531
:101FE0008061914201DC994204DA8000A0F58050C2
:101FF000608000E066801348D7ED020AA11C2C30F7
:1020000000F038F8022D19D0012D00D0A680BDECCB
:10201000028BBDE8F0871649D1ED000AF1EE600AA7
:10202000FDEEE00A10EE900A2080D1ED010AF1EEFB
:10203000600AFDEEE00A10EE900AD9E74FF4FA606C
:10204000A080E4E7F00200208E020020B88F00207C
:102050003333333FF00400200000B443D00FC9C035
:102060002DF9053F00000000000000000000000006
:102070003824002010B5B1F90030B0F900205C42DE
:1020800001EE104AB8EEC11A61EE001A01EE102AF4
:10209000B8EEC11A41EE201ABDEEE11A11EE104A57
:1020A00001EE102A0480B8EEC11A21EE001A00EEEB
:1020B000103AB8EEC00A00EE201ABDEEC10A10EECA
:1020C000100A088010BD00002DE9F04105464E4879
:1020D0000E462DED028BB0F916000B9FFFF7D0FED8
:1020E0009FED4A1AC0EE010A9FED498ADFF824816C
:1020F000444620EE880A88ED060A10EE100A0CF01D
:1021000077FE41EC100B09F0AFFB51EC100B0CF01B
:10211000EFF92061A0690CF06BFE41EC100B09F0A7
:1021200007FC51EC100B0CF0E3F9E0604FF47A710E
:10213000ABB24A4200202C34012B0FD02B0C012BC8
:102140000ED02080B3B2012B0CD0310C01290BD062
:102150006080BAB23049012A08D00EE02180F1E750
:102160002280EFE76180F4E76280F2E72088400098
:10217000208060884000608001200870380C0128B1
:1021800019D0D8ED060A9FED251A10EE901A80EEB0
:10219000880A234A2448254D914220EE010A9FEDEA
:1021A000211A88ED080A09D9D5ED060A30EEC00AD1
:1021B00030EE410A0DE04FF60C601FE010EE901A71
:1021C000D5ED060A1A4A30EEC00A914201DD30EE22
:1021D000010A80ED000AB0EE600A134805F072FBB8
:1021E00095ED051ADFED131AC1EE210A9FED121AC3
:1021F00000EE810ABDEEC00A10EE100AA080BDEC10
:10220000028BBDE8F0810000F00400200000B44320
:10221000D00FC940F00200207C940020000000464E
:10222000F90FC9BF000080458C940020D093002096
:10223000F90FC93F00003443DA0F49400D4910B58A
:1022400000200880488088800B48B0F91600FFF70E
:1022500017FEDFED0A0A07480A4980EE201A9FEDB3
:10226000080A2C3821EE000A80ED070A497801702F
:1022700010BD00001C030020F00400200000B44347
:10228000D00FC9408E020020F0B51F4891B04078B1
:1022900060B11E4C012854F8047B54F8046B54F8C8
:1022A0000C5B06D0022804D0052814D0FFF7C6FF27
:1022B00021E007901C22211D6846FEF723FE202204
:1022C000214608A8FEF71EFE2A4631463846089BDE
:1022D000FFF70CFE0FE0102204F110016846FEF734
:1022E00011FE2022214604A8FEF70CFE04AD95E85D
:1022F0000F00FFF7E9FE11B00549BDE8F0400A1DE7
:102300000846891CFFF77ABD8E020020B88F002096
:102310001C0300200B4D0C4C0C4E00272878C828BD
:1023200002D2401C287000E06770FFF7ADFF6078B4
:10233000307001200BF02EFA00200BF001F9B06292
:10234000ECE70000530200208E020020F002002083
:1023500001681823CAB2103AB2FBF3F2054B6FF3CF
:102360000901032A9B5CC36500D9091D81650846E4
:102370007047000090EF000810B5014600208B69FF
:102380008A6A4FF0C07453B1B3F5005F15D072B1D3
:10239000012A0CD0022A0AD0032A09D104E01AB17A
:1023A000012A06D0022A03D1C96AC90100D5012039
:1023B00010BDC96AA142FAD010BD002AF7D0012A87
:1023C000F2D0022AF3D0032AF3D010BD074808B593
:1023D00040680090014606480269914202D2C168F5
:1023E000491CC1600099016108BD0000001000E0B7
:1023F000800100200A4841680A4AD2ED000A42687A
:10240000521AF8EE601A01EE102AB8EE411A60EE88
:10241000211AB4EEE11AF1EE10FAF0D37047000081
:10242000001000E08001002000B50E492DED028B68
:1024300081B0496800910168009A511A00EE101AA3
:102440000949F8EE400A91ED000A0260B8EE400A30
:1024500080EE808AFFF7BAFF01B0B0EE480ABDEC0B
:10246000028B00BD001000E08001002010B500F0DC
:1024700043F80C489FED0C1A818890ED000A00EE9D
:10248000901AC088B8EE400AF8EE600A00EE810AA1
:1024900000EE900A9FED051AF8EE600A00EE810A40
:1024A00010BD0000B00100206F12833ABD378635A1
:1024B0000D490A6842F080720A600C4900224A60A5
:1024C0000B6843F001030B6009494FF47A734843EA
:1024D000B0FBF3F30749C1E90003054BB0FBF3F090
:1024E000C1E9020270470000FCED00E0001000E0CE
:1024F00040420F00800100202DE9F8432248406847
:102500000090FFF763FF214C00270098E1684FF02F
:10251000FF323D46E1FB0205C4E90E05D4F8008018
:10252000064642463B462946FEF775FC0246A2FB9C
:10253000083CC4E9060101FB08C002FB0701F01AD0
:1025400065EB0105C4E9080504F130080646C8F842
:102550000020D4F8049000234A462946FEF75BFC8D
:1025600081B2A8F8041001FB09F1701A65EB0705A8
:10257000C4E90A0529460023A268FEF74CFCA8F826
:102580000600BDE8F8830000001000E08001002094
:102590007047012000F0A6BF082000F0A3BF102064
:1025A00000F0A0BF202000F09DBFB6EE002A92ED03
:1025B000020AB0EE421AD2ED030A00EE401AD0ED44
:1025C000001AD0ED013A00EEE01A21EE213A92ED28
:1025D000011AD2ED001A61EE002A41EEA02A61EE46
:1025E000200A41EEC00A02EEA33A90ED020AF0EE94
:1025F000002A00EE803A23EE220A81ED000AD2ED95
:10260000010AD2ED021A92ED001A92ED030A20EEB1
:10261000A13AD0ED003A90ED014A01EE403A23EEA6
:10262000233AF0EE423A40EEE03A40EE403A21EEF4
:10263000800A01EE200A03EE843AD0ED020A00EE91
:10264000203A23EE220A81ED010AD2ED010AD2EDF1
:10265000031A92ED020A92ED001A20EEA13A60EE02
:10266000211AD0ED003A00EEE02A01EE003A41EEE8
:10267000601A90ED011A00EE402A23EE233A90ED05
:10268000020A01EE813A02EE003A23EE220A81EDBF
:10269000020A704772B6FEE738B524494FF48172DA
:1026A00008230A6000228A60C1E90323204B2149E4
:1026B000DC78042C00D101228A701F49DFED1F0A4B
:1026C00091ED000A20EE200ABDEEC00A10EE101AAD
:1026D0008180C17801F00102817862F35F01427A62
:1026E00002F0010241EA8202154911F82E4B04F072
:1026F000010442EAC402047B04F0010442EA041229
:1027000042F0E002C2725B78437003788B764378C4
:10271000CB7683888B83007A8877CA77084A6B46A2
:1027200048320249074800F0C5F938BDD08600207C
:102730008E0200207C940020D09300200000C8422C
:1027400010010020F40B002080ED030AD0ED000AF8
:1027500090ED021AD0ED011A60EE200A30EE411A17
:10276000154A41EE210AC0ED040A80ED020ABDEED1
:10277000E00A10EE101A09B201EE101A118090ED65
:10278000050AB8EEC11AF1EE400AF4EEC10AF1EE04
:1027900010FA02DBB0EE600A704700EE901AF8EE15
:1027A000E00AB4EEE00AF1EE10FAF5D900EE101AE4
:1027B000B8EEC00A704700003803002038B52C4A34
:1027C0004FF40073136000239360D36008231361F8
:1027D000284A5342904201DC104602E0984200DB56
:1027E0001846914201DC114602E0994200DB19468D
:1027F000214C224BA28CA2F50072013A06D0012A8C
:1028000008D0022A0AD0032A0FD10BE0020A1A705C
:1028100058700AE0020A9A70D87006E0020A1A712B
:10282000587102E0020A9A71D871E08CA0F500702C
:10283000013806D0012808D002280AD003280FD179
:102840000BE0080A187059700AE0080A9870D970ED
:1028500006E0080A1871597102E0080A9871D971E6
:102860006B46064A0249064800F024F938BD0000CC
:1028700000870020D8DCFFFFF00400206801002062
:10288000CC0B002008480A4A8179084821B1012967
:1028900004D0B0F91E0002E0408B00E0808BA2F86B
:1028A0004200A2F88600704774900020F0040020D7
:1028B0004893002070B52049204CC978A9B300EE98
:1028C000100A1F49B8EEC00AD1ED010A20EE800AB5
:1028D00084ED000A00EE100AD1ED020AB8EEC00A3B
:1028E00020EE800A174D84ED110AB5F9000000EEC4
:1028F000100A1248B8EEC00A04F0E4FFBDEEC00AA8
:1029000010EE100AA4F84000B5F9020000EE100A1B
:102910000A48B8EEC00A443004F0D4FFBDEEC00A45
:1029200010EE100AA4F8840070BDFFE79FED060AC0
:1029300084ED000AD6E700008E02002048930020B4
:10294000F00400202C010020000000000D4810B50C
:1029500090ED040A0C48002180ED020A0B4890ED2E
:10296000370A80ED000AE43090ED310A80ED000A6C
:10297000084605F007FC0021BDE81040084608F0B5
:1029800005BA0000D0930020680200209490002037
:1029900070B5194CA078072805D2DFE800F0040DC7
:1029A0000D0D0D0D0D0000F031F81449A0780872DE
:1029B0001349097819B116E0FFF7C8FFF3E790B1A2
:1029C000104D35F9C00F08F0B7F90E4CE43C34F95E
:1029D000D80F05F097FB0C48B5F90010C160B4F9A9
:1029E0000010016170BD002008F0A6F9BDE870403C
:1029F000002005F087BB00008E0200207C940020A0
:102A0000E40200207891002068020020084900209C
:102A10000A7802B108700749A1F8D800E431A1F89A
:102A2000C000054890ED040A01F1D00006F058B846
:102A30006802002094900020D093002008B54FF445
:102A40007A700AF0A7FE0F4D0F4C00260F4F0BF0C7
:102A50008FFB009005F0D2FD05F088FF287828B1A3
:102A600000230222194620680BF00EFB08F04EFAF4
:102A7000FFF78EFF3E7005F053FD012168460AF016
:102A8000AFFEE4E752020020080000201101002000
:102A900090F82020012A07D0022A05D0416A41F48B
:102AA0008021416201207047006842690A43426107
:102AB00000207047F0B590F820500468A468012DFC
:102AC00005D0022D03D0416A41F4802153E014F077
:102AD000406F01D1E5004BD5C4F30164022C03D94A
:102AE000416A41F4000146E00125A5401D608B6864
:102AF0004FF4C0759BB1CE6833434E6843EAC603BA
:102B0000066805EB0417F3514FF4C273076803EB33
:102B100004130E69FE50097D012905D009E00E88D5
:102B2000CB6843EA4653EBE70168CE5846F480761B
:102B3000CE501179D2F805304FF4C67641EA03231E
:102B4000016806EB04168B511178D2F801204FF47E
:102B5000C47341EA0221026803EB0413D1500068F8
:102B600005EB0411425842F0010242500020F0BD32
:102B7000416A41F4001141620120F0BD10B590F8A6
:102B80002020012A07D0022A05D0416A41F4802181
:102B90004162012010BD3B48D0F8002242F0010202
:102BA000C0F80022D0F8002222F47C52C0F80022A3
:102BB000D0F800224B6A42EA0322C0F800220A7DC4
:102BC00002F01F0301229A40D0F81C329343C0F850
:102BD0001C32CB69B3B9D0F80C329343C0F80C3235
:102BE0008C894B6864F31F434C6900EBC404C4F840
:102BF00040320C890B6864F31F434C6900EBC4043A
:102C0000C4F84432CB69012B16D1D0F80C321343EF
:102C1000C0F80C320C884B6864F31F434C6900EB1E
:102C2000C404C4F840320C89CB6864F31F434C6978
:102C300000EBC404C4F844328B69002BD0F8043292
:102C40000ED01343C0F804320B69002BD0F81432B5
:102C500008D01343C0F81432096A012904D008E0EF
:102C60009343EFE79343F5E7D0F81C121143C0F804
:102C70001C12D0F8001221F00101C0F8001200204F
:102C800010BD000000640040704730B590F820404F
:102C9000012C05D0022C03D0416A41F480215DE073
:102CA0000468002955D02469A40754D04FF4D8747F
:102CB000056804EB01142D5915F0040595600568AD
:102CC0002D594ED0ED08556005682C59C4F34004C9
:102CD000D4604FF4DA74056804EB01142D5905F043
:102CE0000F05156105682D59C5F307259561056820
:102CF0002C59240C54614FF4DC72046802EB01126D
:102D0000A4581C700468A458240A5C700468A45871
:102D1000240C9C700468A258120EDA704FF4DE7214
:102D2000046802EB0112A4581C710468A458240A18
:102D30005C710468A458240C9C710468A258120E9B
:102D4000DA71006881B1016941F020010161002060
:102D500030BDE468A8E7416A41F4001141620120F6
:102D600030BD6D0D1560AFE7C16841F02001C16055
:102D7000EDE72DE9F05F0546006800244669D0F8CC
:102D800004908768D0F80CB0D0F810A0D0F8188064
:102D9000F10748D0F90714D001218160B80703D5A5
:102DA000284600F01AFB0CE0780702D54FF40064C7
:102DB00007E0380702D54FF4805402E0284600F0BF
:102DC0000BFBF80516D529684FF480708860B805AC
:102DD00003D5284600F003FB0CE0780502D544F447
:102DE000005407E0380502D544F4804402E0284648
:102DF00000F0F4FAF80316D529684FF480308860A3
:102E0000B80303D5284600F0ECFA0CE0780302D5AD
:102E100044F4004407E0380302D544F4803402E06F
:102E2000284600F0DDFA300707D55FEACB6004D50D
:102E30002968102044F40074C86070074FF0080738
:102E400007D55FEA0B7004D52868C760284600F0F4
:102E5000B7F9B00706D52868C068800702D02846B1
:102E600000F0B0F9700607D55FEACA6004D529689A
:102E7000102044F480640861B00607D55FEA0A7048
:102E800004D528680761284600F042FAF00606D506
:102E900028680069800702D0284600F03BFAB0039A
:102EA00008D55FEAC96005D5296810204860284622
:102EB00000F066FAF00307D55FEA097004D52868C8
:102EC0004760284600F08EFA300446D55FEA497024
:102ED00040D5F00504D55FEAC87001D044F0010484
:102EE000B00504D55FEA887001D544F0020470058E
:102EF00004D55FEA487001D544F00404300529D5B3
:102F000018F0700F26D008F07000402815D006DCAD
:102F1000102809D020280AD0302816D10AE05028DD
:102F20000ED0602811D10EE044F008040DE044F00A
:102F300010040AE044F0200407E044F0400404E0F8
:102F400044F0800401E044F480742868816921F031
:102F500070018161296804204860002C05D0686AEE
:102F6000204368622846FFF78FFEBDE8F09F70B5EA
:102F7000040003D094F8200010B104E0012070BDDB
:102F8000204600F081F82068016821F0020101600C
:102F900000F09AFB0546052604E000F095FB401B77
:102FA0000A2811D8206840688007F6D42068016894
:102FB00041F00101016000F087FB05460BE000F0E5
:102FC00083FB401B0A2806D9606A40F40030606227
:102FD00084F82060D2E720684068C007EFD0207EE8
:102FE0000128206801683DD021F080010160607EE9
:102FF00001282068016838D021F040010160A07EDE
:1030000001282068016833D021F020010160E07EB2
:103010000128206801682ED041F010010160207F56
:1030200001282068016829D021F008010160607F33
:1030300001282068016824D021F004010160D4E94E
:1030400002010843D4E90412114308436168491E90
:1030500008432168C86100206062012084F82000D4
:10306000002070BD41F08001C0E741F04001C5E79C
:1030700041F02001CAE721F01001CFE741F008013B
:10308000D4E741F00401D9E7F0B587B00446142134
:103090006846FDF7D8FF4549454ADFF80CE1086866
:1030A000D4F800C0424B0324022509261032002721
:1030B000401CF44531D10860012807D1106840F068
:1030C00000701060106800F000700590186840F003
:1030D0000800186018688DE8B00000F00800CDE91D
:1030E000046069460394334800F008FA0022052181
:1030F000132000F05BFC132000F04AFC00220521A5
:10310000142000F053FC142000F042FC00220521A2
:10311000152000F04BFC152041E0DFF89CE0F44561
:103120003FD1D2F800C04CF0806CC2F800C0D2F899
:1031300000C001280CF0806CCDF814C0086007D1E5
:10314000106840F000701060106800F0007005908A
:10315000186840F0020018601868694600F0020024
:10316000059060208DE8A100CDE90346134800F0EA
:10317000C5F9002205213F2000F018FC3F2000F097
:1031800007FC00220521402000F010FC402000F048
:10319000FFFB00220521412000F008FC412000F047
:1031A000F7FB07B0F0BD00000064004018000020ED
:1031B00030380240000C0240006800400004024029
:1031C0007047000030B589B004466B4602AA002162
:1031D000FFF75BFD444D20680022444B4449454CB9
:1031E000A8423CD1258C0298A84213D1BDF800001A
:1031F00040BA00EE100AB8EE400A81ED050ABDF8AB
:10320000020040BAC880487810B93B4880ED020AF5
:10321000012048703648A58C02991C30A94206D17D
:10322000BDF8021049BA01805A6109B030BDE48C82
:10323000A14205D1BDF8021049BA41809A61F4E774
:10324000A1F500710239F0D1BDF800002B4940BA58
:103250000880BDF8020040BA4880DA61E5E7284DF1
:10326000A842E2D1248C0298A0420ED1BDF8000001
:1032700040BA00EE100AB8EE400A81ED050ABDF82A
:10328000020040BAC8809A60CFE7942817D09228ED
:103290001AD09328C9D11B489DF8001001709DF8E1
:1032A000011041709DF8021081709DF80310C170EB
:1032B0009DF8041001719DF805104171B5E7DDE935
:1032C0000002C1E90A02B0E70098C86001980861ED
:1032D0000D4891ED030A80ED370A0C4891ED040A80
:1032E00080ED310AA1E7000000640040F08F00206B
:1032F00010010020F0040020F09300205C02002068
:1033000000680040880200209490002078910020FE
:103310007047000010B58AB004466B4602AA01212E
:10332000FFF7B3FC1149206888421DD0104988423C
:103330001AD110490298498C884215D1BDF806105F
:103340000D4800EE101A4180BDF80420B8EE400A86
:103350008280028180ED060ADDE90012C0E90812D0
:1033600006490020C860C8610AB010BD0064004072
:1033700000680040F004002010010020F08F0020C1
:10338000704770B5044690F82000012804D0606AA8
:1033900040F40020606217E0022084F820002068DA
:1033A000016821F00101016000F08EF905460DE091
:1033B00000F08AF9401B0A2808D9606A40F40030FE
:1033C0006062052084F82000012070BD20684068FC
:1033D000C007EDD1606270BD70477047704770479D
:1033E00070477047704700002DE9F041044600F037
:1033F0006BF905465CB1002684F83460022084F83D
:1034000035002068016821F0010101600DE0012014
:10341000BDE8F08100F058F9401B052805D92020AF
:103420006065032084F83500F2E720680068C00773
:10343000F0D121680A6820480240D4E9010318430A
:10344000D4E903352B43184363691843A369184330
:10345000E3691843236A18431043626A042A03D1BC
:10346000D4E90B231A431043086020684069656A59
:1034700020F0070128460D43012704280CD1A06A3B
:103480000543E06A40B12046FEF776FF20B14020B8
:10349000606584F83570BAE7206845612046FEF71C
:1034A00057FF94F85C203F2191408160666584F865
:1034B00035700020ACE700003F8010F070B5044686
:1034C00000F002F90546601C02D00448007804446C
:1034D00000F0FAF8401BA042FAD370BD8C00002027
:1034E00070470000044910B50A68024202D0086023
:1034F000FFF7F6FF10BD0000143C01402DE9F84F26
:10350000DFF88C91002209F1040A0AF1040B4FF054
:103510000F080BF1040E01260B6896403340B342AE
:1035200071D14C68022C01D0122C11D1D40800EBBF
:1035300084073D6A5407E40E08FA04FC25EA0C05EA
:10354000D1F810C00CFA04FC4CEA050CC7F820C0F6
:1035500007685400032591F804C0A5400CF0030C43
:10356000AF430CFA04FC4CEA070CC0F800C04F68EB
:10357000012F05D0022F03D0112F01D0122F11D10E
:103580008768D1F80CC0AF430CFA04FC4CEA070C76
:10359000C0F808C04768B7430E79C6F300169640D6
:1035A0003E434660C668AE438D68A5403543C5605E
:1035B0004C68E40065D5374C256845F480452560A6
:1035C000246822F0030504F480440094324C2E1940
:1035D000D6F808789407250F08FA05F4A7432F4C6E
:1035E000A04201D1002424E02D4CA04201D10124AD
:1035F0001FE02C4CA04201D102241AE02A4CA04228
:1036000002D1032415E03CE0284CA04201D104245F
:103610000FE0274CA04201D105240AE0254CA0422E
:1036200001D1062405E0244CA04201D1072400E08A
:103630000824AC403C43C6F80848D9F800404D4641
:103640004E689C43F60300D51C432C60DAF800401A
:1036500055464E689C43B60300D51C432C60DBF8EE
:1036600000405D464E689C43F60200D51C432C602A
:10367000DEF8004075464E689C43B60200D51C43F8
:103680002C60521C102AFFF446AFBDE8F88F0000F2
:10369000003C01404438024000300140000002403C
:1036A0000004024000080240000C024000100240EA
:1036B0000014024000180240001C02400AB181615F
:1036C00070470904FBE7000001488068704700006C
:1036D0008C00002070B504001BD094F83D0000253C
:1036E00020B984F83C50204600F0AEF8242084F83D
:1036F0003D002068016821F00101016000F058FFE1
:103700004D4B6168994201D84C4900E04C498842D0
:1037100001D2012070BD4B492268B0FBF1F156681F
:1037200026F03F060E43566062689A4206D94FF46F
:10373000967251434FF47A72B1FBF2F12268491C40
:10374000166A26F03F06314311626168994210D82B
:103750004900401EB0FBF1F2521CC2F30B02042AD6
:1037600001D2042022E0B0FBF1F0401CC0F30B00BA
:103770001CE0A268F2B301EBC10303EB0116431E88
:10378000B3FBF6F35B1C43F480431B0549D092B3B3
:1037900001EBC10202EB0111401EB0FBF1F0401C35
:1037A000C0F30B0040F4804040F400402168CA6937
:1037B0004CF6FF739A431043C861D4E907100143E4
:1037C0002068026822F0C00211430160D4E90301BD
:1037D00001432068826848F2FF339A4311438160B5
:1037E000D4E9051001432068C26822F0FF021143AA
:1037F000C16001E00EE016E02068016841F00101BF
:1038000001602564202084F83D00256384F83E5043
:10381000002070BD01EB4106431EB3FBF6F35B1CB9
:10382000B3E70120C2E701EB4101401EB0FBF1F01C
:10383000401CC0F30B00B7E7A086010080841E0087
:1038400000093D0040420F00F0B587B00446142146
:103850006846FDF7F8FB1B49206888422FD11A48BB
:10386000016841F004010160016801F00401059163
:10387000016841F0010101600068042400F00100CA
:1038800005904FF4007012250126032704948DE85B
:10389000E10069460D48FFF731FEA00104948DE870
:1038A000E10069460A48FFF729FE07481030016821
:1038B00041F400010160006800F40000059007B0C9
:1038C000F0BD0000005C00403038024000080240BB
:1038D000000002400248816802781144816070470C
:1038E0008C0000200B4810B5016841F400710160A4
:1038F000016841F480610160016841F480710160F8
:10390000032000F073F80F2000F006F800F024F810
:10391000002010BD003C024070B50D4D04464FF430
:103920007A712878B1FBF0F00A490968B1FBF0F030
:1039300001F0C5F948B9102C07D200222146501ECB
:1039400000F034F800206C6070BD012070BD0000F4
:103950008C000020980000200C4882B0016841F4DF
:1039600080410160006800F4804000900748001F1B
:10397000016841F0805101600068002200F0805031
:1039800000900F21901E02B000F010B844380240A1
:10399000002809DB00F01F0201219140400980004E
:1039A00000F1E020C0F8001170470000F0B40E4BA9
:1039B0001B68C3F30223C3F10704042C00D90424B9
:1039C0001D1D072D01D2002300E0DB1E012606FA93
:1039D00004F56D1E0D409D409E40761E164045EA42
:1039E0000601F0BC07F077BB0CED00E0064A00F0E2
:1039F000070110684FF6FF03184040EA0120034911
:103A000008431060704700000CED00E00000FA056C
:103A100070470068416200207047F0B50368586A3B
:103A200039B19C6A4FF4827500EB144400204E1E9D
:103A30000AE040EA024098620FE005EB8007DF5998
:103A4000401C04EB1744C0B2B042F6D344EA024033
:103A50004FF4807202EB810158500020F0BDD0F885
:103A6000080506F069B801EBC10200EB8202D0F84C
:103A70000805D26C05F0BCBF01EBC10200EB82026D
:103A8000D0F80805D2F88C2206F00BB8D0F808055B
:103A900006F054B80A0601F00F0101EBC10100EB7A
:103AA000810101D53C3101E001F51F71006806F08C
:103AB0008DBF70B504460B0601F00F0000EBC0018E
:103AC00004EB81014FF001024FF0000503D581F8AE
:103AD0003D203C3103E081F87D5201F51F710870F3
:103AE00094F8BC04012808D084F8BC24206806F0AF
:103AF00025FC84F8BC54002070BD022070BD70B558
:103B0000044601F00F006268904201D9012070BDA7
:103B10000B0601F00F0101EBC10104EB81014FF035
:103B200001024FF0000503D581F83D203C3103E050
:103B300081F87D5201F51F718D70087094F8BC04F6
:103B4000012808D084F8BC24206806F0F5FD84F82C
:103B5000BC54002070BD022070BD01F00F0101EBCC
:103B6000C10100EB8100D0F89C0270472DE9F041C3
:103B700004460F0601F00F0000EBC00104EB8101C9
:103B80004FF001064FF0000503D581F83D603C3150
:103B900003E081F87D5201F51F710870CA600B7156
:103BA0004A7802B10881022B00D14D7194F8BC040F
:103BB000012809D084F8BC64206806F017FB284669
:103BC00084F8BC54BDE8F0810220FBE770B50D46D7
:103BD00001F00F0404EBC40100EB8101C1F8943241
:103BE000C1F88C220023C1F89C3281F87D3281F823
:103BF0007C42036901F51F71012B00D14A612A073C
:103C0000027C006803D006F0EFFD002070BD06F0D6
:103C1000D9FCFAE770B504460D4601F00F00616863
:103C2000884201D9012070BD29064FF000064FF0EF
:103C3000010207D500EBC00104EB810181F83D20B2
:103C40003C3107E005EBC50104EB810181F87D62A1
:103C500001F51F718A70087094F8BC04012807D020
:103C600084F8BC24206806F093FD280702D007E002
:103C7000022070BD217C04F2C442206806F030FDB1
:103C800084F8BC64002070BD70B50D4601F00F04CF
:103C900004EBC40100EB81014B65CA640023CB65D2
:103CA000012381F83D3001F83C4F0369012B00D11D
:103CB0004A612A07027C006803D006F095FD0020C7
:103CC00070BD06F07FFCFAE72DE9F84F0568044661
:103CD000284606F01AFF00287DD1206806F041FF33
:103CE000002878D0D5F80808C0F30D20C4F8FC04EB
:103CF000206806F036FF800704D52068416901F08E
:103D000002014161206806F02CFFC10604F2C440A4
:103D1000009034D52068816921F0100181612F6AFB
:103D200007F00F0000EBC00004EB8006C7F3434030
:103D300006F51F76022802D0062811D01AE047F6B1
:103D4000F070074216D0C7F30A12174628463169A9
:103D500006F00BFF306938443061306A384408E0BF
:103D600008222846009906F000FF306AC7F30A11BE
:103D7000084430622068816941F010018161206847
:103D800006F0EFFE00034FF0010B7AD50026206805
:103D900006F0C6FE8046DFF87CA46FE05FEAC870DC
:103DA00069D0F1B2206806F0D4FE0746C00707D0FC
:103DB00005EB4611C1F808BB3146204603F082FCF2
:103DC000380722D505EB46110820C1F8080B2068FA
:103DD000D0F8409000E01BE200EB4610D0F8082B32
:103DE000D14505D9110403D54FF40041C0F8081B93
:103DF000204600F0FFFAD14507D92069012804D1F7
:103E000020680121009A06F06BFCF80604D505EB4A
:103E100046111020C1F8080BB8071DD568690006C7
:103E200005D5D5F8040840F48061C5F8041806EB00
:103E3000C60004EB800090F87F1200F51F70012986
:103E400005D10021C170F1B2204600F0E9F905EB7F
:103E500046110220C1F8080BB80604D505EB461040
:103E60002021C0F8081BB80405D505EB46104FF417
:103E70000051C0F8081B4FEA5808761CB8F1000F33
:103E80008CD1206806F06DFE40036ED5206806F0E8
:103E900040FE8046002665E05FEAC8705FD0F1B260
:103EA000206806F044FE0746C00723D006F00F0244
:103EB0000BFA02F0D5F834288243C5F8342805EB14
:103EC0004610C0F808B9206901280FD106EBC600DA
:103ED00004EB8000D0E912211144C16436B9606D51
:103EE00020B920680121009A06F0FAFBF1B22046C1
:103EF000FFF7B9FD380704D505EB46110820C1F8D6
:103F00000809F80604D505EB46111020C1F8080988
:103F1000780604D505EB46104021C0F80819B8070B
:103F200017D53146284606F0C3FD06EBC60004EB64
:103F3000800090F83F103C30012905D10021C1706C
:103F4000F1B2204600F068F905EB46110220C1F8F5
:103F50000809380603D53146204603F019FC4FEA1C
:103F60005808761CB8F1000F96D1206806F0F9FDCC
:103F7000002811DAD5F8040820F00101C5F804186A
:103F800094F8F40401282BD0204600F017FA20689A
:103F9000416901F000414161206806F0E2FD000541
:103FA0000BD5D5F80808C00702D0204600F04AFA21
:103FB0002068416901F400614161206806F0D1FD8B
:103FC000C00467D5D5F8040820F00101C5F804182D
:103FD0001021206806F06CFD00214FF67F3220E0B2
:103FE000002084F8F40401462046FFF711FDCEE7D7
:103FF00005EB4110C0F80829D0F8003923F400136C
:10400000C0F80039C0F8082BD0F8003B23F40013A7
:10401000C0F8003BD0F8003B43F00063C0F8003B21
:10402000491C60688842E3D8D5F81C0840F00111AB
:10403000C5F81C18206B002828460DD0D0F884083D
:1040400040F00B01C5F88418D5F8440840F00B0186
:104050002846C5F844180DE0D0F8140842F22B01A8
:104060000843C5F81408D5F8100840F00B0128469D
:10407000C5F81018D0F8000820F4FE61C5F8001843
:10408000217C2068009A06F02BFB2068416901F42E
:1040900080514161206806F064FD800415D52068D8
:1040A00006F0E4F8206806F023FDE06000F07AFAFC
:1040B0000146227B206806F0B7FD204600F068F933
:1040C0002068416901F400514161206806F049FD12
:1040D000000707D5204600F075F92068416901F016
:1040E00008014161206806F03CFD000615D5A8696D
:1040F00020F08001A96101260CE006EBC60004EB6C
:10410000800090F87F02012803D1F1B22046FFF72A
:10411000C1FC761C6068B042EFD8206806F021FD33
:10412000C00221D501265F4616E005EB4610D0F807
:10413000001906EBC60004EB800090F84020012A2D
:1041400009D1002907DA80F83F70F0B240F0800111
:104150002046FFF79FFC761C6068B042E5D82068D7
:10416000416901F480114161206806F0FAFC800287
:1041700031D501205B4626E005EB4011D1F8001B4C
:1041800000EBC00204EB820292F88062012E19D18A
:10419000002917DA94F8FC6401F4803106F0010676
:1041A000B1420FD182F87F32A96941F08002AA6141
:1041B0006969090606D4D5F8040840F40070C5F80A
:1041C000040803E0401C61688142D5D82068416939
:1041D00001F400114161206806F0C3FC400007D5DE
:1041E0002046FFF73CFC2068416901F080414161B5
:1041F000206806F0B6FC40070AD5206845686807C5
:1042000002D52046FFF742FC2068416829434160FF
:10421000BDE8F88F0A30544FD0F8080505F0E2BC2D
:10422000D0F8080505F0F2BC2DE9F0418AB0040091
:1042300005D094F8BD042668002520B108E00120CF
:104240000AB0BDE8F08184F8BC54204600F05EF866
:10425000032084F8BD04F06BC00500D425612068FC
:1042600006F0AAF904F11001282288466846FCF7F6
:104270008EFE94E80F0006F007F80227C8BB002165
:10428000206806F091FC002101260EE001EBC10040
:1042900004EB800080F83D6000F83C1F018105714F
:1042A000C5600561491CC9B2856160688842EDD866
:1042B000002111E001EBC10004EB800080F87D5289
:1042C00080F87C1280F88052C0F88852C0F88C5276
:1042D000491CC9B2C0F8945260688842EAD82822C2
:1042E00041466846FCF753FE94E80F0006F0AAF832
:1042F00010B184F8BD74A2E784F8385084F8BD6426
:10430000206806F091F800209AE7000010B586B00A
:10431000044614216846FCF796FE2068B0F1A04FD1
:104320002FD119480021026842F0010202600068A2
:1043300000F0010005904FF4C05000900220CDE93C
:104340000101032003900A20049069460F48FFF7FB
:10435000D5F80D48001D016841F0800101600A4850
:104360001430016841F4804101600068002200F4CB
:104370008040059011464320FFF718FB4320FFF7CC
:1043800007FB06B010BD00003038024000000240BC
:1043900070B50446C068012570B1022801D0FEF74F
:1043A00079F92946D4F8080505F09EFCD4F80805EB
:1043B000BDE8704005F053BC0025F2E7D0F80805D1
:1043C00005F07BBCD0F8080505F081BC10B50446AB
:1043D00090F8BC0401280BD0012084F8BC0484F8B8
:1043E0003810206806F00EFC002084F8BC0410BDD4
:1043F000022010BDD0F8082500F2C441104605F097
:104400007FBC10B50446006894F8BC14012906D09E
:10441000012184F8BC14A16A012902D008E002201D
:1044200010BDA169012903D0816B41F48031816302
:10443000206806F019FB206805F0E8FF002084F8EA
:10444000BC0410BD10B50446D0F8080505F09AFC70
:104450002068D0F8001E41F00101C0F8001E206A5B
:10446000002804D00248016841F00601016010BD37
:1044700010ED00E02DE9F0470D46040065D0DFF8AF
:104480001491D9F80000EFB200F00F00A84207D253
:1044900089F80070D9F8000000F00F00A84254D14C
:1044A00020683D4E810712D5400703D5306840F49F
:1044B000E05030602078000703D5306840F4604059
:1044C00030603068A16820F0F00008433060207848
:1044D000C0072DD0304960680839012812D0022861
:1044E00013D0032811D00968890700292DDA316813
:1044F00021F0030101433160FFF7E6F8804641F205
:10450000883A0EE009688903EFE709688901ECE75A
:10451000FFF7DAF8A0EB0801514502D90320BDE806
:10452000F0873068616800F00C00B0EB810FEFD1CC
:10453000D9F80010484601F00F01A94207D90770C9
:10454000006800F00F00A84201D00120E7E72078C2
:10455000400705D53068E16820F4E050084330603A
:104560002078000706D53068216920F4604040EAD1
:10457000C100306000F03CF83168084AC1F3031113
:10458000515CC840064908600F20FFF7C5F90020BC
:10459000C5E70000003C02400838024098EF0008E0
:1045A0009800002001480068704700009800002033
:1045B0000448054900680968044AC1F38221515C36
:1045C000C84070479800002008380240A8EF000853
:1045D0000448054900680968044AC1F34231515C46
:1045E000C84070479800002008380240A8EF000833
:1045F000154810B5006810F00C01144813D0144B86
:1046000004290FD008290ED10F4C241F216801F076
:104610003F022168490207D52068C0F38810A0FB3B
:10462000030106E0184610BD2168C1F38811A1FB03
:1046300000010023FCF7EFFB2168C1F30141491C95
:104640004900B0FBF1F010BD083802400024F4002E
:10465000001BB7002DE9F84F040073D02078BD4D42
:10466000C00748D0BB4808300168C1F38101012967
:1046700008D00068C0F3810002280AD1281D006814
:10468000400206D52868800335D560680028E4D04C
:1046900031E06068B0F5803F10D0B0F5A02F2868F9
:1046A00010D020F480302860286820F48020286012
:1046B0006068A0B1FFF708F806460CE0286840F4EF
:1046C0008030F4E740F480202860F7E7FEF7FCFF35
:1046D000801B642872D828688003F7D50BE0FEF7AA
:1046E000F3FF064604E0FEF7EFFF801B6428F1D8D5
:1046F00028688003F7D42078DFF85C9280074FF0B9
:10470000000A3ED593480830016811F00C0F09D01B
:104710000068C0F3810002280BD18E48001D00689C
:10472000400206D42868800715D5E068012809D121
:1047300011E0E068B8B10120C9F80000FEF7C4FF3D
:10474000064605E003E1FEF7BFFF801B0228C1D843
:1047500028688007F7D52868216920F0F80040EA2A
:10476000C10028600DE0C9F800A0FEF7ADFF0646C5
:1047700004E0FEF7A9FF801B02281FD828688007E5
:10478000F7D42078000722D5724F744960697437D6
:1047900070B101200860FEF797FF064604E0FEF7BF
:1047A00093FF801B022809D838688007F7D50EE0F0
:1047B000C1F800A0FEF788FF064605E081E0FEF79D
:1047C00083FF801B02287CD838688007F7D42078C4
:1047D000400769D5DFF87CB14FF000080BF1400BC2
:1047E000DBF80000C0000CD4DBF8001041F0805171
:1047F000CBF80010DBF800004FF0010800F080500B
:104800000090574F3868C0050FD4386840F4807066
:104810003860FEF759FF064604E0FEF755FF801B9F
:1048200002284ED83868C005F7D54A4FA0687037BF
:1048300001280FD00528386810D020F0010038601A
:10484000386820F004003860A068B0B1FEF73CFF83
:1048500006460EE0386840F00100F4E740F004003E
:104860003860F7E7FEF730FF811B41F28830814264
:1048700065D838688007F5D50DE0FEF725FF0646B8
:1048800006E0FEF721FF811B41F28830814256D8B5
:1048900038688007F5D4B8F1000F05D0DBF80010B8
:1048A00021F08051CBF80010A069C8B32949083124
:1048B0000968C1F38101022949D00228504607D076
:1048C00000E03CE0C9F86000FEF7FEFE044639E077
:1048D0004F46C9F86000FEF7F7FE064604E0FEF713
:1048E000F3FE801B02282AD828688001F7D4D4E977
:1048F00007010843A16A1B4A490802EB0141626AA9
:1049000041EA8211084394F82C1040EA01611148F1
:10491000001D016001203866FEF7D6FE044605E062
:1049200013E0FEF7D1FE001B022808D8286880019A
:10493000F7D50AE0FEF7C8FE001B022802D90320C3
:10494000BDE8F88F28688001F4D40020F8E7012042
:10495000F6E700000038024000004742800E474260
:10496000007000400000FFFF70B5040005D0002576
:10497000A56294F8510010B106E0012070BD84F8E2
:104980005050204600F030F8022084F85100206892
:10499000016821F040010160D4E901010843D4E934
:1049A00003121143084361690843218B01F400712C
:1049B0000843E1690843216A0843A16A0843216862
:1049C0000860A069042101EA1040616A0843216877
:1049D00048602068C16921F40061C16165650120FA
:1049E00084F85100002070BD2DE9F04387B00446E3
:1049F00014216846FCF727FB34492068884261D1BE
:104A000033480025016841F480510160006800F4DA
:104A1000805005902E481438016841F00201016071
:104A2000016801F002010591016841F00101016096
:104A30000068022600F001000590182001274FF0C1
:104A400003084FF005098DE8C10369462148FEF7C8
:104A500055FD80208DE8C10369461F48FEF74EFDD5
:104A60001F4E1E484FF0C0673060C6E901754FF415
:104A70008068C6E9035875617812B561C6E90750C8
:104A800030467562FEF7B0FC08B1FDF703FEE66440
:104A9000B463134E114860361830E6E80207402030
:104AA000A6E82101C00246F81459B561C6E90750CD
:104AB0000B4875626030FEF797FC08B1FDF7EAFD20
:104AC000A664B46307B0BDE8F08300000030014085
:104AD00044380240000402400000024040640240AA
:104AE000C80C00202DE9F84F044690F8500001252D
:104AF0000A9E1F4692468B464FF0000801280ED0B2
:104B0000012084F85000FEF7DFFD814694F8510043
:104B1000616801280CD0B1F5827F07D102E0022044
:104B2000BDE8F88FA16809B9042801D00220B6E0D9
:104B3000BBF1000F27D0BAF1000F24D01FB394F8B7
:104B40005100042802D0052084F85100002060653F
:104B5000C4F838A0E787A787C4F830B0E786A786EF
:104B60002064606420680168490603D4016841F04C
:104B700040010160E068B0F5006F606805D0E8B3FF
:104B8000012F43D079E0012089E008B1012F34D111
:104B9000206B21680088C860206B801C2063E08E39
:104BA000401EE08629E02068816889070DD5E18EE6
:104BB00059B1012D09D1216B0988C160206B801C7E
:104BC0002063E08E401EE086002520688168C907CA
:104BD0000BD0E18F49B1C068A16B0880A06B801C2D
:104BE000A063E08F401EE0870125FEF76DFDA0EB7E
:104BF0000900B04201D3701C50D100E006E0E08E05
:104C00000028D0D1E08F0028CDD13CE0206B216876
:104C100000780873206B401C2063E08E401EE08605
:104C20002BE02068816889070DD5E18E59B1012DEF
:104C300009D1216B09780173206B401C2063E08E41
:104C4000401EE086002520688168C9070BD0E18FEF
:104C500049B1C068A16B0870A06B401CA063E08FD5
:104C6000401EE0870125FEF72FFDA0EB0900B042B2
:104C700002D3701C01D011E086B1E08E0028D0D1A3
:104C8000E08F0028CDD14A463146204603F0CCFBC8
:104C900038B120204FF00108606508E0032080460D
:104CA00005E0A06818B92068C168806800900120FC
:104CB00084F85100002084F85000404630E710B5D9
:104CC000401EB0F1807F01D3012010BD4FF0E024E1
:104CD00060610F21601706F0FEF90020A061072037
:104CE0002061002010BD70B590F83C20012A19D039
:104CF000012500F83C5F0222427050F83C2C5368BA
:104D0000946823F070060B684968334324F08004EC
:104D10002143536050F83C2C916045700021017094
:104D2000084670BD022070BD10B5040003D094F891
:104D30003D0010B107E0012010BD002084F83C00C8
:104D4000204600F00DF8022084F83D00211D206867
:104D500003F0EAFE012084F83D00002010BD0000B1
:104D600008B500681749B0F1804F0BD0164A904241
:104D700010D1086840F008000860086800F00800DA
:104D8000009008BD086840F001000860086800F065
:104D90000100F5E70D4A904209D10A48001D01685B
:104DA00041F400310160006800F40030E8E7084A8F
:104DB0009042E6D1086840F004000860086800F0FE
:104DC0000400DDE740380240000C00400044014090
:104DD00000080040022180F83D1001688A6802F056
:104DE0000702062A03D00A6842F001020A60012184
:104DF00080F83D100020704770B5044690F83C00E4
:104E0000012817D0012584F83C50022084F83D0089
:104E10002068826822F0770222F47F42826008686C
:104E2000502830D00DDC20284DD005DC98B3102858
:104E30003BD148E0022070BD302844D0402834D116
:104E400039E0602828D0702806D0B0F5805F2CD0DB
:104E5000B0F5005F29D10AE0CB68D1E901212068D3
:104E600003F0D3FE2068816841F0770109E0CB6848
:104E7000D1E90121206803F0C8FE2068816841F46F
:104E80008041816011E0CA684968206803F0A7FF8B
:104E90005021206807E016E0CA684968206803F0DE
:104EA000AFFF6021206803F0BAFE84F83D50002077
:104EB00084F83C0070BDCA684968206803F08FFF21
:104EC00040212068EFE7226801461046EBE700002A
:104ED00030B587B0044614216846FCF7B4F82E4D6F
:104EE000206800232D4A02210124A8421FD1106806
:104EF00040F080001060106800F0800005904FF4D2
:104F0000E0508DE813000391049169462448FEF7B0
:104F1000F5FA2448FFF75EFF0021224800F0D0F8A0
:104F20000421204800F0CCF808211E481BE01E4D4B
:104F3000A8421CD1106840F020001060106800F0FA
:104F40002000059040208DE813000320CDE90310D8
:104F500069461648FEF7D2FA12484030FFF73AFF8A
:104F600010480021403000F0ABF807B030BD104CC5
:104F7000A042FAD1106840F008001060106800F0FC
:104F80000800059020148DE80B00CDE90331694637
:104F90000848FEF7B3FAE8E7000C0040303802405A
:104FA000001C0240080E0020004401400014024092
:104FB00000080040000C024070B5044690F83C0028
:104FC0000D4601280DD0012684F83C60022084F8AB
:104FD0003D0042B1042A18D0082A2AD00C2A4DD10B
:104FE00039E0022070BD206803F022FE206881694C
:104FF00041F0080181612068816921F0040181612B
:10500000206881692A69114311E0206803F040FE9D
:105010002068816941F4006181612068816921F41F
:1050200080618161206881692A6941EA0221816188
:1050300024E0206803F062FE2068C16941F00801A5
:10504000C1612068C16921F00401C1612068C169A2
:105050002A69114311E0206803F084FE2068C169C9
:1050600041F40061C1612068C16921F48061C161BE
:105070002068C1692A6941EA0221C16184F83D6062
:10508000002084F83C0070BD10B5040003D094F8F3
:105090003D0010B107E0012010BD002084F83C0065
:1050A000204600F00CF8022084F83D00211D206805
:1050B00003F03AFD012084F83D00002010BD704748
:1050C00010B504460068012203F092FD0B482168E8
:1050D000814202D00A48814203D1486C40F400402A
:1050E00048642068816801F00701062903D001683F
:1050F00041F001010160002010BD000000000140EE
:105100000004014070B5040004D094F83900002573
:1051100010B106E0012070BD84F83850204600F040
:1051200023F8242084F839002068C16821F4005154
:10513000C160204603F076FE2068016921F49041A9
:1051400001612068416921F02A0141612068C1683C
:1051500041F40051C160E563202084F8390084F8EF
:105160003A00002070BD000070B586B006461421DC
:105170006846FBF768FF24493068884242D12348DB
:105180000025016841F480210160006800F480205E
:1051900005901E481038016841F004010160006864
:1051A000694600F0040005904FF440600090022032
:1051B00001900120029003200390072004901448DE
:1051C000FEF79CF9144C134820604FF00060C4E9CE
:1051D00001054014C4E903506561C001A561C4E93B
:1051E000075020466562FEF7FFF808B1FDF752FA56
:1051F0007463002205212720A663FEF7D7FB272032
:10520000FEF7C6FB06B070BD0048004040380240C3
:105210000008024028600240C80E002070B5044615
:1052200000203C4D2074A27B288861684243D4F85A
:10523000F400FBF7ACFEA17B288841436068FBF7D4
:1052400002FFA07B10FB00F128884143D4F818012D
:10525000FBF7F9FE207BA17B10FB01F1288841437D
:10526000D4F80C01FBF7EFFE00202BE0D4F8F4108B
:1052700001EB800292ED000AB5EEC00AF1EE10FAE1
:105280001ED0227C01EB820181ED000A227C616A42
:105290008854A169227B01EB8001237C91ED000AF7
:1052A0006169095C12FB03116FF0030202EB8101DB
:1052B000D4F80C21114481ED000A217C491C217491
:1052C000401CC0B2A17B8142D0D8002010E0636AAC
:1052D000E2691B5C02EB830292ED000A10FB010104
:1052E000D4F81821401C02EB8101C0B281ED000A04
:1052F000217C8142EBD8C8B224F8780F14F86C0CEA
:10530000608020816181218361832084618424F80D
:10531000301C70BD88030020FEE700002149224AAE
:10532000F2EE041A088B92ED0A1A00EE900A1F485A
:10533000B8EEC11AF8EE600A41EE610AC0ED030A48
:10534000C98A01EE101A0021B8EE411A21EE000AB6
:1053500080ED040A0172437A90ED051A02EE103ACC
:105360004172B8EE422A02EE211A31EE400A80ED77
:10537000050AB5EEC00AF1EE10FA03D29FED0C0A51
:1053800080ED050A92ED081A60EE810AB4EEE00A9B
:10539000F1EE10FA00D20121817280ED060A82ED51
:1053A000090A704774900020940200202093002086
:1053B00000000000F0B5894F0E462DED068B044627
:1053C00087B01546D0ED040A97ED100A844830EEF8
:1053D000C00AB0EEC00A10EE101A814219DC94ED3A
:1053E000050A97ED111A30EE410AB0EEC00A10EE30
:1053F000101A81420DDC94ED060A97ED121A30EE78
:10540000410AB0EEC00A10EE101A814201DC207889
:10541000F0B3DFED74AA80EEAA0AFAF7A9FFD4ED83
:10542000050AF0EE409A80EEAA0AFAF7A1FFD4ED41
:10543000060AB0EE40AA80EEAA0AFAF799FFD4ED68
:10544000040AB0EE409A80EEAA0AFAF7FDFFD4ED06
:10545000050AB0EE408A80EEAA0AFAF7F5FFD4ED0D
:10546000060AF0EE408A80EEAA0AFAF7EDFF69EE2E
:10547000890A68EE281AB0EE601A01EE801A87EDEC
:10548000131A2AEE081A87ED141A29EE801A00E082
:1054900023E069EE081A002001EEE81A87ED151ADC
:1054A00029EEA81A21EE001A09EE481A87ED161AFD
:1054B00029EE8A1A87ED171A28EE401A2AEE400ABA
:1054C00000EEE81A87ED181A87ED190A2AEE090A84
:1054D000C7ED1A8A87ED1B0A20700020694606EB8B
:1054E000800292ED000A04EB8002D2ED010A01EB8A
:1054F0008002401C20EE200AC0B2032882ED000A80
:10550000EDD39DED001AD7ED135ADDED010AD7ED6D
:10551000144A61EE251A9DED020A97ED152A002026
:1055200044EEA01A03A942EE001AC6ED001A97ED48
:10553000163AD7ED173A97ED184A61EE031A43EE83
:10554000A01A44EE001AC6ED011AD7ED191A97ED0C
:105550001A5AD7ED1B2A21EE211A05EE201A02EE67
:10556000801A86ED021A05EB800292ED000A01EB2B
:105570008002401CC0B282ED000A0328F3D39DEDE7
:10558000030A9DED041ADDED050A60EE255A44EE8E
:10559000815A42EE205A20EE032A20EE210A03EE21
:1055A000812A05EE010AC5ED005A04EE202A02EE1A
:1055B000A00A85ED012A85ED020A94ED040A87ED23
:1055C000100A94ED050A87ED110A94ED060A87ED9D
:1055D000120A07B0BDEC068BF0BD0000C001002030
:1055E0006F12833AE12E654210B504462DED048B0F
:1055F000D0F8EC00D0ED009AD0ED018A90ED029A3F
:1056000029EEA90A90ED038A08EEA80A09EE090A14
:1056100008EE080A07F05AF90020D4F8EC1001EB64
:105620008001401CD1ED000AC0B2042860EE800A5F
:10563000C1ED000AF1D33F48D4F8001190ED6F0A94
:1056400060EE280AB6EE000A60EE800AC1ED040A98
:10565000D0ED6F0AD4F8001160EE890A60EE800A7E
:10566000C1ED050AD0ED6F0AD4F8001120EEA91A99
:10567000FEEE000A21EE201A81ED0A1A90ED6F1A53
:10568000D4F8001121EE081A21EE001A81ED0B1A50
:1056900090ED6F1AD4F8001121EE081A21EE201AAD
:1056A00081ED101A90ED6F1AD4F8001121EE291A2D
:1056B00021EE201A81ED111A90ED6F1AD4F8001125
:1056C00021EE091A21EE000A81ED160A90ED6F0A0B
:1056D000D4F8001120EE280A20EE200A81ED170AE6
:1056E000D4F8F810D0ED740A91ED1C0A80EE201A5F
:1056F00081ED1C1AD4F8F810D0ED740A91ED230A4C
:1057000080EE201A9FED0D0A81ED231AD4F8F800DF
:105710000949026F8A4201DD80ED1C0AD4F8F800C5
:10572000D0F88C208A4201DD80ED230ABDEC048B89
:1057300010BD00003895002000401C4600401C466B
:1057400070B54F4C01252DED088B04F5D870F0EEA7
:1057500043AAF0EE628A257080EC030A9FED490AA5
:10576000002084ED730A84F83801C4E95000C4E9CC
:10577000520011EE900AB0F17E5F01DDF7EE001AE3
:10578000C4ED741A84ED642A032300220621201D2F
:1057900000F002FF3C4B01221146A3F10800FAF78A
:1057A0003FFF9FED3A8AB6EE00BAB0EE480AFAF72C
:1057B000DFFDF0EE409AB0EE480AFAF745FEB0EE93
:1057C00040AA28EE8B0AB0EE408AFAF7D1FDB0EE7F
:1057D000409AB0EE480AFAF737FEF0EE408A2AEE19
:1057E0008B0AF0EE40AAFAF7C3FDB0EE408AB0EEA5
:1057F0006A0AFAF729FE29EE891A6AEE281A2AEEB1
:10580000092A69EEA82A61EE080A21EE001A1C484E
:10581000902241EE800A01EEC81A62EE001A22EED2
:10582000082A10381E4942EE881A02EEC02AC0EC3F
:10583000040A54F8EC0FC0ED000A54F8640980ED36
:10584000011A606EC0ED021A606E80ED032A1048E6
:10585000A0641048E064104820651048606504F8B2
:105860005A5C04F8595CE06FFBF791FB606F902283
:10587000BDEC088BBDE870400A49FBF788BB00000F
:105880003895002077CC2B320097002000000000D4
:10589000A9580008E9550008DD580008815D000896
:1058A000E0EF0008D003002010B50446902254F821
:1058B000F81F0848FBF76BFB48220748616AFBF7B3
:1058C00066FB054861694822BDE810404830FBF797
:1058D0005EBB0000D00300201897002070B504467E
:1058E000B0EE000A54F8EC0F2B4DD0ED000A60EE3C
:1058F000800AC5ED090AD0ED010A60EE800AC5ED07
:105900000A0AD0ED020A60EE800AC5ED0B0AD0ED5E
:10591000030A20EE800A85ED0C0A14F8DE0C14F858
:10592000E01C10FB01F11D4800884143206AFBF791
:105930008AFBD5ED0B1A206AB1EE612A80ED002AB0
:10594000206A95ED0C1A80ED011A95ED090A206A7E
:10595000F1EE400AC0ED020A206AD5ED0A0AC0ED58
:10596000030A206AC0ED060A206A80ED070A206A51
:1059700080ED081A206AC0ED091A206A80ED0C0A31
:10598000206AB1EE600A80ED0D0A206A80ED0E2AD1
:10599000206A80ED0F1A70BD8C0300208803002060
:1059A00070B5EC4CEC4D90222DED048BB0EE619A6D
:1059B000B0EE628A84ED6F3AD4ED581AF0EE428A66
:1059C000E64970EE611AC4ED5B1A94ED590A30EEA7
:1059D000C00A84ED5C0AD4ED5A0A71EE600AB6EE94
:1059E000001A61EE811A20EE010AC4ED5D0A61EE33
:1059F000831A20EE030AC5ED001A85ED010A20EE98
:105A0000810A20EE030A85ED020AD4F8040104F5A8
:105A10008274FBF7BCFAD5ED000A2068B1EE602A6B
:105A200080ED012A95ED011A2068F1EE412AC0EDC2
:105A3000022A95ED020A2068F1EE401AC0ED031A21
:105A40002068C0ED060A206880ED080A2068C0EDD5
:105A5000092A206880ED0C1A2068C0ED0D1A206814
:105A6000C0ED0F0A206880ED120A206880ED131A3D
:105A700054F8440B80ED142A74E85201084305D110
:105A800084ED5E9AC4ED5F8A84ED608A94ED5E0ACF
:105A900094ED641AD4ED6F0A20EE012A30EE810AEB
:105AA000C2EE001A20EE892AC2EE002A31EEA23A96
:105AB00084ED5E3AD4ED5F1A21EE812AC2EE001A1F
:105AC00020EEA82A60EE880AC2EE002A71EEA21A21
:105AD000C4ED5F1A94ED602A22EE012A82EE001ACC
